:100000000C944C010C947D010C947D010C947D01A9
:100010000C947D010C947D010C947D010C947D0168
:100020000C947D010C947D010C947D010C947D0158
:100030000C947D010C947D010C947D010C947D0148
:100040000C947D010C947D010C947D010C947D0138
:100050000C947D010C947D010C947D010C948F19FE
:100060000C947D010C9465190C943B190C947D0142
:100070000C947D010C947D010C947D010C947D0108
:100080000C947D010C947D010C947D010C947D01F8
:100090000C9411190C94E7180C947D010C94D91947
:1000A0000C947D010C947D010C947D010C947D01D8
:1000B0000C947D010C947D010C947D010C947D01C8
:1000C0000C947D010C947D010C947D010C94BD1861
:1000D0000C9493180C947D010C9469180C943F189F
:1000E0000C947D010C94EB010C9495030C949B03F0
:1000F0000C94B61E0C9472030C94EA010C9440020A
:100100000C9462020C944D220C9483030C943102E3
:100110000C94FD1A0C949F030C940F050C94E201AF
:100120000C9487030C94E9010C94A3030C943205FE
:100130000C94A9030C94B8020C94A8030C947D03AE
:100140000C941F050C9454020C945F050C94AD03A1
:100150000C9405030C946E030C9491030C946803A7
:100160000C947A030C94EB050C9476030C948D0399
:100170000C94100500002200250028002B002E0002
:100180003100340002010000050108010B010000EC
:100190002100240027002A002D0030003300010137
:1001A0000000040107010A010000200023002600CE
:1001B00029002C002F00320000010000030106017D
:1001C00009010505050507050808080802020202DD
:1001D0000A0A0808040404040101010101010101E3
:1001E0000303030303030303040707070C0C0C0CAE
:1001F0000C0C0C0C02020202060606060606060697
:100200000B0B0B0B0B0B0B0B010210202008081023
:100210002040102040800201020108040201010276
:10022000040810204080804020100804020180044F
:1002300002018040201008040201080402010102AA
:1002400004081020408001020408102040800000B3
:100250000A0B02090C0D0E08070304010000000040
:10026000000000000000000000000000000000008E
:10027000000000000000000000001211100000004B
:10028000000000000000000000000000000000006E
:1002900000000000FD1AB61E11241FBECFEFD1E2F0
:1002A000DEBFCDBF00E00CBF13E0A0E0B2E0E0E5B0
:1002B000F7E400E00BBF02C007900D92AC35B10728
:1002C000D9F72EE0ACE5B3E001C01D92AF3EB20716
:1002D000E1F711E0CBE4D1E000E006C0219701098D
:1002E000802FFE010E94CC21CA34D10780E008078C
:1002F000A9F70E94DD1B0C9496230C940000CF926A
:10030000DF92EF92FF92CF93DF93EC016A017B01C2
:10031000E889F98982E08083C11481EED806E1047E
:10032000F104A1F060E079E08DE390E0A70196018F
:100330000E94AA212150310941095109569547953A
:1003400037952795211580E1380798F0E889F989D4
:10035000108260E874E88EE190E0A70196010E94A7
:10036000AA212150310941095109569547953795E0
:100370002795EC85FD853083EE85FF852083188EDB
:10038000EC89FD8986E08083EA89FB898081806130
:100390008083EA89FB89808188608083EA89FB8980
:1003A000808180688083EA89FB8980818F7D80835A
:1003B000DF91CF91FF90EF90DF90CF9008958CBDAB
:1003C0009DBD08958091490490914804891B990B23
:1003D000089508950895AF92BF92CF92DF92EF9261
:1003E000FF920F931F93CF93DF936C017B018B01DF
:1003F000040F151FEB015E01AE18BF08C017D1072F
:1004000059F06991D601ED91FC910190F081E02DB8
:10041000C6011995892B79F7C501DF91CF911F91FD
:100420000F91FF90EF90DF90CF90BF90AF90089525
:10043000FC01A089B1898C91A689B78982FD0FC082
:100440009C91818D8F5F8F73228D821749F0A18DD2
:10045000AE0FBF2FB11D5D969C93818F08958C9137
:100460000895FC01538D448D252F30E0842F90E0BA
:10047000821B930B541710F0CF960895019708959F
:10048000FC01918D828D981761F0A28DAE0FBF2F68
:10049000B11D5D968C91928D9F5F9F73928F90E0BE
:1004A00008958FEF9FEF0895FC01918D828D98172D
:1004B00031F0828DE80FF11D858D90E008958FEF6A
:1004C0009FEF0895FC01918D228D892F90E0805C33
:1004D0009F4F821B91098F73992708958EE494E0B2
:1004E0000E94620221E0892B09F420E0822F089506
:1004F0008BEE94E00E94620221E0892B09F420E057
:10050000822F089588E895E00E94620221E0892BFD
:1005100009F420E0822F089585E296E00E946202AD
:1005200021E0892B09F420E0822F0895FC01A48D9D
:10053000A80FB92FB11DA35ABF4F2C91848D90E005
:1005400001968F739927848FA689B7892C93A089E8
:10055000B1898C91837080648C93938D848D981372
:1005600006C00288F389E02D80818F7D8083089505
:10057000EF92FF920F931F93CF93DF93EC0181E0F3
:10058000888F9B8D8C8D98131AC0E889F98980819A
:1005900085FF15C09FB7F894EE89FF896083E889CD
:1005A000F98980818370806480839FBF81E090E0BF
:1005B000DF91CF911F910F91FF90EF900895F62E4C
:1005C0000B8D10E00F5F1F4F0F731127E02E8C8DE6
:1005D0008E110CC00FB607FCFACFE889F98980812B
:1005E00085FFF5CFCE010E949602F1CFEB8DEC0F87
:1005F000FD2FF11DE35AFF4FF0829FB7F8940B8F48
:10060000EA89FB8980818062CFCFCF93DF93EC01B1
:10061000888D8823B9F0AA89BB89E889F9898C91EA
:1006200085FD03C0808186FD0DC00FB607FCF7CFA6
:100630008C9185FFF2CF808185FFEDCFCE010E94A6
:100640009602E9CFDF91CF91089580E090E0892B69
:1006500029F00E948C0281110E94000080E090E04D
:10066000892B29F00E94820281110E94000080E003
:1006700090E0892B29F00E94780281110E940000ED
:1006800080E090E0892B29F00E946E0281110C9489
:10069000000008958150823108F05AC0E82FF0E040
:1006A0008827EA5AFC4F8F4F0C94CC2176037A03AB
:1006B00068036E037203A8037D03830387038D031E
:1006C000910395039B039F03A803A303A903AD0311
:1006D000809180008F7780938000089580918000C2
:1006E0008F7DF9CF80918000877FF5CF84B58F779C
:1006F00084BD089584B58F7DFBCF8091B0008F7746
:100700008093B00008958091B0008F7DF9CF8091E3
:1007100090008F77809390000895809190008F7D56
:10072000F9CF80919000877FF5CF8091A0008F77DF
:100730008093A00008958091A0008F7DF9CF8091D3
:10074000A000877FF5CF809120018F7780932001D3
:100750000895809120018F7DF9CF80912001877FBE
:10076000F5CF1F93CF93DF93282F30E0F901E25BA1
:10077000FD4F8491F901E85FFD4FD491F901EE53EB
:10078000FE4FC491CC23A9F0162F81110E944A0379
:10079000EC2FF0E0EE0FFF1FEC58FE4FA591B49147
:1007A0008FB7F894EC91111108C0D095DE23DC933B
:1007B0008FBFDF91CF911F910895DE2BF8CFCF929D
:1007C000DF92EF92FF920F931F93CF93DF9390915D
:1007D000CA0E9F3F81F48EBD00000DB407FEFDCF11
:1007E000FEB48F2DDF91CF911F910F91FF90EF906D
:1007F000DF90CF900895D82EF12CC7E0D0E001E033
:1008000010E0FF0C60E08091CA0E0E94B103B801B5
:100810000C2E01C0660F0A94EAF76D218091C80E74
:100820000E94B10361E08091CA0E0E94B103209141
:10083000C90E30E0F901E25BFD4F8491F901E85FF8
:10084000FD4FE490F901EE53FE4FC490CC2081F0AF
:1008500081110E944A03EC2DF0E0EE0FFF1FE855D6
:10086000FE4FA591B491EC91EE2211F06894F0F84E
:10087000219708F0C6CFB5CFCF93DF9390E0FC016E
:10088000E85FFD4F24918E539E4FFC018491882395
:10089000D1F090E0880F991FFC01E257FE4FA5911F
:1008A000B491FC01EC58FE4FC591D49161110EC07A
:1008B0009FB7F8948C91E22FE0958E238C9328813A
:1008C000E223E8839FBFDF91CF9108958FB7F8941B
:1008D000EC91E22BEC938FBFF6CF20917B00982F09
:1008E000987F277F922B90937B0087708064809302
:1008F0007C0080917A00806480937A0080917A00F5
:1009000086FDFCCF809178009091790008953FB7E3
:10091000F8948091380490913904A0913A04B091F0
:100920003B0426B5A89B05C02F3F19F00196A11DD9
:10093000B11D3FBFBA2FA92F982F8827BC01CD0129
:10094000620F711D811D911D42E0660F771F881F88
:10095000991F4A95D1F708958F929F92AF92BF92B7
:10096000CF92DF92EF92FF924B015C010E948704CD
:100970006B017C010E9487046C197D098E099F0917
:10098000683E734081059105A8F321E0821A910821
:10099000A108B10888EEC80E83E0D81EE11CF11C46
:1009A00081149104A104B10429F7FF90EF90DF9026
:1009B000CF90BF90AF909F908F90089585ED8093DA
:1009C000BC008091BC0084FDFCCF109243040895CC
:1009D0002091EC03260F3327331F21323105ECF42D
:1009E00020914304FC0190E080E0243069F082E033
:1009F0000895A091EC032191AC0144535C4FA40FE6
:100A0000B52FB11D2C930196861798F38091EC03B6
:100A1000680F6093EC0380E0089581E008950895E5
:100A2000E091480480914904E81730F4F0E0E4557F
:100A3000FC4F808190E008958FEF9FEF0895909193
:100A40004804809149042FEF3FEF981748F4E92FAD
:100A5000F0E0E455FC4F208130E09F5F9093480424
:100A6000C9010895CF92DF92EF92FF920F931F93E7
:100A7000CF93DF937C01CB018A0120914D04222387
:100A800089F0EB016B01C40ED51ECC15DD0569F0B4
:100A90006991D701ED91FC910190F081E02DC701A2
:100AA0001995F3CF642F0E94E804C801DF91CF911C
:100AB0001F910F91FF90EF90DF90CF900895CF930B
:100AC000DF931F92CDB7DEB7698320914D042223B7
:100AD000F9F020914A04203258F021E030E0FC0186
:100AE0003383228390E080E00F90DF91CF910895CF
:100AF00080914B04E82FF0E0E457FC4F99819083FC
:100B00008F5F80934B0480934A0481E090E0ECCFA8
:100B100061E0CE0101960E94E804F7CF20914A04DB
:100B200081E0213208F044C0809143048111FCCF60
:100B300080914C0492E09093430491E0909342049E
:100B40009FEF90930F041092310420933004ACE88F
:100B5000B3E0E0E1F4E090E0291331C010923204F8
:100B600090913204880F892B809332048091410444
:100B7000813049F510924104809132048093BB008A
:100B80008091BC0083FDF8CF85EC8093BC00809100
:100B900043048230E1F380910F048F3FB1F08091E4
:100BA0000F048032A1F080910F04803391F084E033
:100BB00010924B0410924A0410924D0408953D91F6
:100BC00031939F5FC9CF85EEE0CF80E0F1CF82E027
:100BD000EFCF83E0EDCF90E080E008950895CF93CC
:100BE000DF93D82FC62F8091C70E8F3F59F5809184
:100BF000B40E9091B50E2091BE0E31E030934D04AD
:100C000020934C0410924B0410924A04DC01ED91A5
:100C1000FC910190F081E02D6D2F19958091B40E1B
:100C20009091B50EDC01ED91FC910190F081E02DE9
:100C30006C2F19958091B40E9091B50EDF91CF91E4
:100C40000C948E058091CA0E8F3F21F482E591E0CD
:100C50000E94DF0160E08091C70E0E94B1038D2FDA
:100C60008F770E94DF038C2F0E94DF0361E0809169
:100C7000C70EDF91CF910C94B103CF93DF93EC01BA
:100C800088819981DC01ED91FC910190F081E02D4A
:100C900019952A813B81820F931F9B838A83DF9161
:100CA000CF910895DC018D919C91DC01ED91FC9137
:100CB0000280F381E02D1994EF92FF920F931F931E
:100CC000CF93DF93CDB7DEB766970FB6F894DEBF4C
:100CD0000FBECDBF8C01CB01FE0177969F014AE08C
:100CE000E42EF12CB7010E949621805D8293CB0106
:100CF0000097C1F7A9014E1B5F0BBF01C8010E94FD
:100D00005206F80122813381820F931F93838283DD
:100D100066960FB6F894DEBF0FBECDBFDF91CF91C0
:100D20001F910F91FF90EF9008958F929F92AF9235
:100D3000BF92CF92DF92EF92FF920F931F93CF93C8
:100D4000DF93CDB7DEB766970FB6F894DEBF0FBE60
:100D5000CDBF7C018E01095E1F4F68018AE0882E9D
:100D6000912CA12CB12CCB01BA01A50194010E94B8
:100D7000AA21942F852F605DF80162938F01A9014C
:100D8000692F782F411551056105710561F7A6019D
:100D90004E1B5F0BBF01C7010E945206F701228163
:100DA0003381820F931F9383828366960FB6F894E4
:100DB000DEBF0FBECDBFDF91CF911F910F91FF908E
:100DC000EF90DF90CF90BF90AF909F908F9008955D
:100DD000DC01ED91FC911197309741F0948190786E
:100DE000906294831182108213821282BF01129644
:100DF0008D919C910895CF92DF92EF92FF926A01BC
:100E00007B01BC01990F880B990B0E941620A7014A
:100E100096010E941921FF90EF90DF90CF900895E6
:100E2000CF93DF93DC01EB01EC81FD818A819B8113
:100E30000896E817F90730F4F0E0E0E0CF01DF9121
:100E4000CF9108953897FD83EC833097A9F31296DC
:100E5000CD91DC911397209791F0CF018C1B9D0BC6
:100E600023E0959587952A95E1F78D831396FC935A
:100E7000EE9312971582148217821682DFCF119695
:100E8000FC93EE93F3CFCF93DF93EC016A817B81E8
:100E90008881998130E020E0009719F00E941007C6
:100EA0009C01B9018A819B81DF91CF910895FC015A
:100EB000892B41F09481907894609483718360834E
:100EC00081E0089580E00895FC01892B51F0948120
:100ED00090789C609483408351836283738381E024
:100EE000089580E00895809143048111FCCF81E052
:100EF00080934304809342049FEF90930F041092D9
:100F00003104940F90933004809332048091320422
:100F1000660F682B6093320480914104813019F58B
:100F200010924104809132048093BB008091BC00F8
:100F300083FDF8CF85EC8093BC0080914304813021
:100F4000E1F380913104841710F440913104A0E161
:100F5000B4E0ECEAF3E080E0841307C010924804A8
:100F600080934904089585EEE6CF9D9191938F5F1C
:100F7000F3CFCF93DF93C82F8091C70E8F3F09F037
:100F800046C08091B40E9091B50E2091BE0E31E016
:100F900030934D0420934C0410924B0410924A0459
:100FA000DC01ED91FC910190F081E02D6C2F199501
:100FB0008091B40E9091B50E0E948E0542E0609132
:100FC000BE0E8091B40E9091B50E0E947307809171
:100FD000B40E9091B50EDC01ED91FC910284F38585
:100FE000E02D1995C82F8091B40E9091B50EDC01BB
:100FF000ED91FC910284F385E02D199520E03C2FC2
:10100000E901C82BD92BCE01DF91CF9108958091B2
:10101000CA0E8F3F21F482E591E00E94DF0160E07B
:101020008091C70E0E94B1038C2F0E94DF0380E0E5
:101030000E94DF03C82F80E00E94DF03DC2FC82F4F
:1010400061E08091C70E0E94B103DDCF0E94B90715
:1010500098278927982708958F929F92AF92BF92E1
:10106000CF92DF92EF92FF92F82E8091C70E8F3FC2
:1010700009F070C08091B40E9091B50E2091BE0E13
:1010800031E030934D0420934C0410924B041092A5
:101090004A04DC01ED91FC910190F081E02D6F2D6F
:1010A00019958091B40E9091B50E0E948E0543E083
:1010B0006091BE0E8091B40E9091B50E0E947307A0
:1010C0008091B40E9091B50EDC01ED91FC910284FB
:1010D000F385E02D19954C01990FAA08BB08BA2C8D
:1010E000A92C982C88248091B40E9091B50EDC0127
:1010F000ED91FC910284F385E02D1995092E000CE9
:10110000AA0BBB0B882A992AAA2ABB2ABA2CA92C7B
:10111000982C88248091B40E9091B50EDC01ED914D
:10112000FC910284F385E02D1995092E000CAA0B81
:10113000BB0B6C017D01C828D928EA28FB28C70110
:10114000B601FF90EF90DF90CF90BF90AF909F904F
:101150008F9008958091CA0E8F3F21F482E591E02F
:101160000E94DF0160E08091C70E0E94B1038F2DC5
:101170000E94DF0380E00E94DF0390E0B0E0A0E087
:10118000CC24D82EE92EFA2E80E00E94DF03C82A54
:10119000FE2CED2CDC2CCC2480E00E94DF03C82A3E
:1011A00061E08091C70E0E94B103C9CF8F929F92D8
:1011B000AF92BF92CF92DF92EF92FF920F931F9365
:1011C0008AEF0E942C086115710520E882079105BD
:1011D00009F47DC00091CB0E1091CC0E30E020E0E0
:1011E000C72ED82EE92EFF24E7FCFA94C01AD10AA4
:1011F000E20AF30A57E095958795779567955A9592
:10120000D1F7000F111F221F331F4B015C01801A01
:10121000910AA20AB30AA5019401A091CD0EB09142
:10122000CE0E0E94DF214B015C01FBE0B594A79438
:1012300097948794FA95D1F7A7019601C701B60153
:101240000E9486219B01AC01ACE0559547953795EE
:101250002795AA95D1F7A091CF0EB091D00E0E94FC
:10126000DF219B01AC01BEE0559547953795279549
:10127000BA95D1F7280D391D4A1D5B1D2093C30E69
:101280003093C40E4093C50E5093C60EA5E0B0E057
:101290000E94D42160587F4F8F4F9F4F672F782F28
:1012A000892F992787FD9A950E94162020E030E02B
:1012B00048EC52E40E94661F1F910F91FF90EF903F
:1012C000DF90CF90BF90AF909F908F90089560E097
:1012D00070E080EC9FE7F0CF4F925F926F927F9229
:1012E0008F929F92AF92BF92CF92DF92EF92FF9236
:1012F0000F931F93CF93DF9300D01F92CDB7DEB72C
:101300007B011091C3069091C406682F612B606821
:101310008091C206682B8091D60621E020934D046F
:1013200080934C0410924B0410924A04692B89EC70
:1013300096E00E945F0589EC96E00E948E05882366
:10134000B9F081E090E00F900F900F900F90DF9137
:10135000CF911F910F91FF90EF90DF90CF90BF90B2
:10136000AF909F908F907F906F905F904F90089577
:101370000E9487044B015C01812F90E09595879531
:101380008730910508F0A0C0FC01EE0FFF1FE80FA9
:10139000F91FEE58FD4F80819181A281BC018A2FF7
:1013A00090E0611520E472078105910508F48FC073
:1013B00028EE33E040E050E00E94AA21CA01B901C2
:1013C0000E94AC048E010F5F1F4F6E0185E0C80EB6
:1013D000D11CF0EC4F2EFDEB5F2EF0EF6F2E77243B
:1013E0007A94481859086A087B0819821A821B8265
:1013F0001C8244E06091D60689EC96E00E94730757
:101400008091490490914804891B990B049709F035
:1014100070C0580189EC96E00E941F05F501819388
:101420005F01CE16DF06B1F78C81982F9C709C303F
:1014300009F05AC08093D50653E08091D50687FD08
:1014400058C08C7090E09C0136952795820F931FB1
:10145000FC01E35AFD4F80809180A2800A2C000C91
:10146000BB08885B9D4FFC01208131814281F801DE
:1014700080E090E0DC016191BA2FA92F982F882796
:10148000862B6E2F601B6517B0F3F7018083918365
:10149000A283B38388229922AA22BB2289288A2880
:1014A0008B2879F05901C42E0C2C000CDD08B601F4
:1014B000A5018A29952BAC29B72B80839183A28320
:1014C000B38390E080E03FCF60E070E0CB0162301A
:1014D000710508F477CFCB01880F991F880F991FEA
:1014E00005970197F1F76ECF8B818093D50652E077
:1014F000A4CF0E948704640D751D861D971D97FF5C
:1015000074CF83E090E01FCFCF93C82F8091C70E98
:101510008F3FA9F58091B40E9091B50E2091BE0E2B
:1015200031E030934D0420934C0410924B04109200
:101530004A04DC01ED91FC910190F081E02D6C2FCB
:1015400019958091B40E9091B50E0E948E0541E0E0
:101550006091BE0E8091B40E9091B50E0E947307FB
:101560008091B40E9091B50EDC01ED91FC91028456
:10157000F385E02D1995C82F8C2FCF910895809178
:10158000CA0E8F3F21F482E591E00E94DF0160E006
:101590008091C70E0E94B1038C2F0E94DF0380E070
:1015A0000E94DF03C82F61E08091C70E0E94B10343
:1015B000E3CFFB0101900020E9F73197AF01461B13
:1015C000570B0C94EB010F931F93CF93DF93EC0118
:1015D0000E94D90A8C016BEA72E0CE010E94D90AFE
:1015E000800F911FDF91CF911F910F910895CF939D
:1015F000DF93EC01FB0101900020E9F73197AF0187
:10160000461B570B0E9452062A813B81820F931F73
:101610009B838A83DF91CF910895FF920F931F934D
:10162000CF93DF936115710549F46DEB72E0DF91A3
:10163000CF911F910F91FF900C94F70A8B01EC0151
:1016400062E2CE010E943D06F80161918F0166239E
:1016500051F0EEEAF2E0F080FF2099F38181681703
:1016600059F03296F8CF62E2CE01DF91CF911F910F
:101670000F91FF900C943D066CE5CE010E943D0653
:101680006F2DDFCF2F923F924F925F926F927F929A
:101690008F929F92AF92BF92CF92DF92EF92FF9282
:1016A0000F931F93CF93DF93CDB7DEB76A970FB633
:1016B000F894DEBF0FBECDBF8C014B01DC01149648
:1016C0008C9114978F77863009F47CC2C8F48230ED
:1016D00000F1843008F05CC2F801428153816081DE
:1016E0007181C4010E945206D40112962D913C9141
:1016F0001397820F931F13969C938E931297F4C1A6
:101700008C3099F148F4883009F457C28A3009F4D2
:1017100045C26DEB72E063C2803209F40CC28034C2
:10172000C1F76BE5C4010E943D06F80100811181FB
:101730000115110509F4FAC1B401C8010E94420B58
:10174000D80115968C91882309F4F0C1B8E08B027A
:10175000C0011124080F191F0115110509F4E6C174
:101760006CE2C4010E943D06E3CFF8014080518045
:1017700062807380A3019201C301B2010E94611FC4
:101780008111C7CF20E030E0A901C301B2010E945E
:10179000611F882379F0A3019201C301B2010E9465
:1017A000F51E9B01AC01C301B2010E94611F882399
:1017B00009F4AFCF20E030E0A901C301B2010E94DB
:1017C000611F87FF08C06DE2C4010E943D0677FAE1
:1017D000709477F8709420E836E948E15BE4C3013F
:1017E000B2010E94142187FD79C048E4E42E42E052
:1017F000F42E58E1C52E52E0D52E60E3A62E62E00D
:10180000B62E00E210E0312C212CD7015E914E91D2
:101810003E912E917D01C301B2010E94142187FDEA
:101820000DC0F6012489358946895789C301B20163
:101830000E9419212B013C01200E311E15950795A0
:10184000F4E0CF1AD108AE14BF04F9F62FEF2B8BBA
:1018500020E030E0A901C301B2010E941421181652
:101860000CF043C02CEA35EC47E257E3C301B20168
:101870000E94611F1816CCF19B89A4E09A025001C6
:101880001124D12CC12CBB89BF3F79F17501EC0C1F
:10189000FD1CF701E050FE4FA301920160817181B0
:1018A000828193810E94142118167CF4F701E05D77
:1018B000FD4F2081318142815381C301B2010E94D9
:1018C00019212B013C01201A310A15950795EB8946
:1018D000E150EB8BF4E0CF1AD108D5CF00E210E055
:1018E00085E08B8B312C212CB3CFC301B2010E9438
:1018F000DF1F6B8B7C8B8D8B9E8B6B017C0116E0CD
:1019000080E492E4AFE0B0E08F8B988FA98FBA8F1C
:10191000012F11509AE0C916D104E104F104C8F076
:101920006F89788D898D9A8D2AE030E040E050E013
:101930000E94AA212F8B388F498F5A8FC701B60179
:101940002AE030E040E050E00E94AA2169017A01DB
:10195000DFCF6B897C898D899E890E9414209B0131
:10196000AC01C301B2010E94F41E6B017C016F89BE
:10197000788D898D9A8D0E9414209B01AC01C7013E
:10198000B6010E9419212B013C010E94DF1F6B014F
:101990007C010E9414209B01AC01C301B2010E9492
:1019A000F41E9B01AC010E94F51E0E94DF1FC60EB3
:1019B000D71EE81EF91E8F89988DA98DBA8DC8167D
:1019C000D906EA06FB0600F18B899C89AD89BE89A0
:1019D0000196A11DB11D8B8B9C8BAD8BBE8B2114F1
:1019E000310439F10A97A105B10518F19FEF291AC1
:1019F000390AC12CD12C760181E090E0A0E0B0E062
:101A00008B8B9C8BAD8BBE8B9AE0492E512C612C1D
:101A1000712CC701B601A30192010E94AA21672B74
:101A2000682B692B51F4101644F469017A010150B6
:101A3000F0CFC12CD12C7601E7CF4B895C896D8921
:101A40007E89C4010E949506002309F43FC05E010F
:101A500091E1A90EB11C102FBA8AA98A8AE0482EFA
:101A6000512C612C712C115068F0C701B601A301F3
:101A700092010E94AA21605DD5016E935D0169010A
:101A80007A01F1CF802F90E0BC0160957095E989D3
:101A9000FA89E81BF90B31978EE28083442755279A
:101AA000461B570BE1E1F0E0EC0FFD1F6E0F7F1FAF
:101AB000C4010E945206D40112962D913C911397B5
:101AC000820F931F13969C938E93129737FE25C017
:101AD00062EC72E0C4010E94F70A66277727621958
:101AE0007309C4010E945C066A960FB6F894DEBFC3
:101AF0000FBECDBFDF91CF911F910F91FF90EF905F
:101B0000DF90CF90BF90AF909F908F907F906F901D
:101B10005F904F903F902F9008952114310421F34E
:101B200065E6C4010E943D06B101DBCF6DE5C4014D
:101B30000E943D06D9CF6BE7C4010E943D06F80123
:101B4000008111810115110509F1D80116966D91D9
:101B50007C91C4010E940D0B6AE3C4010E943D0602
:101B6000B401C8010E94420BF8018581882371F0FD
:101B7000F8E08F02C0011124080F191F011511058B
:101B800029F06CE2C4010E943D06DCCF6DE7CFCFA7
:101B90006D917C91C4010E940D0BA6CFF801C0800D
:101BA000D180E280F3806DE2C4010E943D06B7015E
:101BB000A601C4010E94950697CF4D915D916D914C
:101BC0007C91F7CFF80180819181A281B38165EC8E
:101BD00072E0892B8A2B8B2B11F46AEC72E0C40122
:101BE0000E94F70A81CFCF93DF9300D01F92CDB729
:101BF000DEB79A8389831C821B82BE016F5F7F4F91
:101C00008FED96E00E94420B8B819C810F900F908C
:101C10000F900F90DF91CF910895CF92DF92EF92C6
:101C2000FF920F931F93CF93DF93009711F16115EC
:101C30007105F9F06A018B017C01FC01C081D18141
:101C40002097E1F06E817F8106171707A9F06115D3
:101C5000710529F0C8010E948D23882369F08D81C8
:101C6000882361F0F8E08F02C0011124C80FD91F4A
:101C7000E7CF90E080E00EC0CE010CC0B601C701F6
:101C80000E941007009731F0FC0124812F772483F4
:101C900017830683DF91CF911F910F91FF90EF90F3
:101CA000DF90CF9008952F923F924F925F926F9264
:101CB0007F928F929F92AF92BF92CF92DF92EF92DC
:101CC000FF920F931F93CF93DF93CDB7DEB7C45D21
:101CD000D1090FB6F894DEBF0FBECDBF8091D706F5
:101CE0009091D8069093DA068093D9068091DD060C
:101CF0009091DE069093DC068093DB068091E306EC
:101D000080788093E3068FED96E09A83898387ED50
:101D100096E09C838B83CE0101960E94E8066B01BE
:101D20007C01AC0160ED72E0C6010E940D0EFC0169
:101D3000892BA1F0409144045091450460914604E0
:101D4000709147049481907877FF02C00C942D180D
:101D5000986094834083518362837383A7016AED03
:101D600072E0C6010E940D0EFC01892B41F08481B6
:101D70008078806484831182108213821282CE550F
:101D8000DF4FF983E883C25AD040CC55DF4FF98248
:101D9000E882C45AD04068E673E08091C8060E9489
:101DA0006C09609168037091690380916A03909156
:101DB0006B030E94162020E030E0A9010E94F51E6E
:101DC0006B017C01C0928803D0928903E0928A0360
:101DD000F0928B0364E673E08091C7060E946C0961
:101DE000609164037091650380916603909167032D
:101DF0000E94162020E030E0A9010E94F51E2B0170
:101E00003C01409284035092850360928603709255
:101E1000870360E673E08091C6060E946C096091BA
:101E200060037091610380916203909163030E944B
:101E3000162020E030E0A9010E94F51ECA55DF4FB0
:101E4000688379838A839B83C65AD04060938003DA
:101E50007093810380938203909383036CE573E016
:101E60008091C5060E946C0960915C0370915D03CE
:101E700080915E0390915F030E94162020E030E085
:101E8000A9010E94F51EC655DF4F688379838A83B6
:101E90009B83CA5AD04060937C0370937D038093E8
:101EA0007E0390937F0388E00E946D04BC01990F2C
:101EB000880B990B0E94162020E030E0A9010E94B7
:101EC000F51EC255DF4F688379838A839B83CE5A80
:101ED000D040609378037093790380937A03909352
:101EE0007B0389E00E946D04BC01990F880B990B5C
:101EF0000E94162020E030E0A9010E94F51ECE5479
:101F0000DF4F688379838A839B83C25BD040609371
:101F100074037093750380937603909377038AE03C
:101F20000E946D04BC01990F880B990B0E9416202A
:101F300020E030E0A9010E94F51ECA54DF4F6883FB
:101F400079838A839B83C65BD040609370037093D0
:101F5000710380937203909373038BE00E946D046E
:101F6000BC01990F880B990B0E94162020E030E0ED
:101F7000A9010E94F51EC654DF4F688379838A83C6
:101F80009B83CA5BD04060936C0370936D03809316
:101F90006E0390936F03CE018E559F4F0E944307AF
:101FA00069837A838B839C83CE0101960E94E80625
:101FB0004B015C0189869A86AB86BC8607EE202E93
:101FC00002E0302E3E862D8687E0FE013896DE0147
:101FD000119601900D928A95E1F74C815D81B101D6
:101FE0008A819B810E940D0E6AE073E00E94570770
:101FF000C701B6010E94D81FCB014FE652E163E84A
:1020000077E30E94FB066B017C01888A998AAA8A81
:10201000BB8A00EF12E01D8B0C8B87E0FE013F9620
:10202000DE01189601900D928A95E1F74B855C854B
:10203000B80189859A850E940D0EB701A6010E94FC
:102040006407CE018E559F4F0E9443076F87788BA0
:10205000898B9A8BCE010F960E94E8066B017C015A
:10206000CF8AD88EE98EFA8E3C8E2B8E87E0FE01C9
:102070007696DE011F9601900D928A95E1F74A89C6
:102080005B89B101888999890E940D0E66EF72E023
:102090000E945707C301B2010E94D81FCB014FE62F
:1020A00052E163E877E30E94FB064B015C01CE8EB0
:1020B000DF8EE8A2F9A21BA30AA387E0FE017D96AA
:1020C000DE01569601900D928A95E1F7498D5A8D61
:1020D000B8018F89988D0E940D0EB501A4010E9450
:1020E0006407CE018E559F4F0E9443076D8F7E8FF0
:1020F0008F8F98A3CE014D960E94E8066B017C015C
:10210000CDA2DEA2EFA2F8A63AA629A687E0FE019C
:10211000B496DE015D9601900D928A95E1F748A193
:1021200059A1B1018E8D9F8D0E940D0E68EF72E056
:102130000E945707CA55DF4F688179818A819B8148
:10214000C65AD0400E94D81FCB014FE652E163E847
:1021500077E30E94FB064B015C01CCA6DDA6EEA650
:10216000FFA619AB08AB87E0FE01BB96DE01949693
:1021700001900D928A95E1F74FA158A5B8018DA164
:102180009EA10E940D0EB501A4010E946407CE011C
:102190008E559F4F0E9443076BA77CA78DA79EA7D4
:1021A000CE018B960E94E8066B017C01CBAADCAACB
:1021B000EDAAFEAA38AE2FAA87E0FE01F296DE0154
:1021C0009B9601900D928A95E1F74EA55FA5B1010E
:1021D0008CA59DA50E940D0E6AEF72E00E94570724
:1021E000C655DF4F688179818A819B81CA5AD04068
:1021F0000E94D81FCB014FE652E163E877E30E94CB
:10220000FB064B015C01CAAEDBAEECAEFDAE1FAF10
:102210000EAF87E0FE01F996DE01D29601900D9295
:102220008A95E1F74DA95EA9B8018BA99CA90E94E6
:102230000D0EB501A4010E946407CE018E559F4F7B
:102240000E94430769AF7AAF8BAF9CAFCE01C996AE
:102250000E94E8066B017C012596CCAEDDAEEEAEA9
:10226000FFAE259727963FAE2EAE279787E0FE015B
:10227000E05CFF4FDE01D99601900D928A95E1F75F
:102280004CAD5DADB1018AAD9BAD0E940D0E6CEF02
:1022900072E00E945707C255DF4F688179818A81B9
:1022A0009B81CE5AD0400E94D81FCB0147E856E10F
:1022B0006DE97BE30E94FB064B015C012C96CCAEE2
:1022C000DDAEEEAEFFAE2C972E961FAF0EAF2E9763
:1022D00087E0FE01E95BFF4FDE01A05CBF4F01908C
:1022E0000D928A95E1F725964EAD5FAD2597B80121
:1022F00023968EAD9FAD23970E940D0EB501A401CC
:102300000E946407CE018E559F4F0E9443072B9673
:102310006CAF7DAF8EAF9FAF2B97CE01895B9F4F88
:102320000E94E8066B017C016396CCAEDDAEEEAE9A
:10233000FFAE639765963FAE2EAE659787E0FE01D0
:10234000E25BFF4FDE01A95BBF4F01900D928A95C2
:10235000E1F72C964EAD5FAD2C97B1012A968EAD6C
:102360009FAD2A970E940D0E6EEF72E00E945707F4
:10237000CE54DF4F688179818A819B81C25BD040D6
:102380000E94D81FCB0147E856E16DE97BE30E942C
:10239000FB064B015C016A96CCAEDDAEEEAEFFAE45
:1023A0006A976C961FAF0EAF6C9787E0FE01EB5AF1
:1023B000FF4FDE01A25BBF4F01900D928A95E1F7BE
:1023C00063964EAD5FAD6397B80161968EAD9FADDC
:1023D00061970E940D0EB501A4010E946407CE0111
:1023E0008E559F4F0E94430769966CAF7DAF8EAFAD
:1023F0009FAF6997CE018B5A9F4F0E94E8066B01F1
:102400007C01A196CCAEDDAEEEAEFFAEA197A39659
:102410003FAE2EAEA39787E0FE01E45AFF4FDE01E8
:10242000AB5ABF4F01900D928A95E1F76A964EAD77
:102430005FAD6A97B10168968EAD9FAD68970E94B7
:102440000D0E60E073E00E945707CA54DF4F6881A9
:1024500079818A819B81C65BD0400E94D81FCB01C5
:1024600047E856E16DE97BE30E94FB064B015C0106
:10247000A896CCAEDDAEEEAEFFAEA897AA961FAF83
:102480000EAFAA9787E0FE01ED59FF4FDE01A45A77
:10249000BF4F01900D928A95E1F7A1964EAD5FADC9
:1024A000A197B8016F968EAD9FAD6F970E940D0EEC
:1024B000B501A4010E946407CE018E559F4F0E9472
:1024C0004307A7966CAF7DAF8EAF9FAFA797CE01A6
:1024D0008D599F4F0E94E8066B017C01AF96CCAEF0
:1024E000DDAEEEAEFFAEAF97E1963FAE2EAEE1971A
:1024F00087E0FE01E659FF4FDE01AD59BF4F019065
:102500000D928A95E1F7A8964EAD5FADA897B101FF
:10251000A6968EAD9FADA6970E940D0E62E073E069
:102520000E945707C654DF4F688179818A819B8159
:10253000CA5BD0400E94D81FCB0147E856E16DE945
:102540007BE30E94FB064B015C01E696CCAEDDAE60
:10255000EEAEFFAEE697E8961FAF0EAFE89787E0C6
:10256000FE01EF58FF4FDE01A659BF4F01900D92BB
:102570008A95E1F7AF964EAD5FADAF97B801AD96D6
:102580008EAD9FADAD970E940D0EB501A4010E94C6
:102590006407CE018E559F4F0E944307E5966CAFAE
:1025A0007DAF8EAF9FAFE597CE018F589F4F0E94B2
:1025B000E8066B017C01ED96CCAEDDAEEEAEFFAE73
:1025C000ED97EF963FAE2EAEEF9787E0FE01E8580D
:1025D000FF4FDE01AF58BF4F01900D928A95E1F792
:1025E000E6964EAD5FADE697B101E4968EAD9FAD38
:1025F000E4970E940D0E64E073E00E9457070E946A
:10260000D6084B015C01C058DF4FC882D982EA82EC
:10261000FB82C058D040CC57DF4F19830883C45881
:10262000D04087E0FE01E158FF4FDE01A858BF4FC0
:1026300001900D928A95E1F7ED964EAD5FADED9765
:10264000B801EB968EAD9FADEB970E940D0EB501D4
:10265000A4010E946407CE018E559F4F0E9443073C
:10266000C158DF4F688379838A839B83CF57D040DB
:10267000CE0181589F4F0E94E806C953DF4F6883FF
:1026800079838A839B83C75CD040C957DF4F6883B7
:1026900079838A839B83C758D040C557DF4F3982DF
:1026A0002882CB58D04087E0FE01EA57FF4FDE0179
:1026B000A158BF4F01900D928A95E1F7CE57DF4F99
:1026C00048815981C258D040B101C058DF4F88813C
:1026D0009981C058D0400E940D0E66E073E00E94C0
:1026E00057070E94D60887EF0E942C08CD53DF4F72
:1026F000688379838A839B83C35CD040C12CD12CAF
:1027000030ECE32E3FE7F32E61157105804891050B
:1027100009F4C5C28091C30E9091C40EA091C50E5C
:10272000B091C60E6C017D01FF0CCC08DC2C76014B
:102730009C01AD016C2D7C2D8C2D9C2D345F414076
:1027400051096109710981099109CA55DF4F28832F
:10275000C65AD040C655DF4F3883CA5AD040C255FA
:10276000DF4F4883CE5AD040CE54DF4F5883C25BF0
:10277000D040CA54DF4F6883C65BD040C654DF4F99
:102780007883CA5BD040C254DF4F8883CE5BD04091
:10279000C154DF4F9883CF5BD04059016A017B0160
:1027A0008C010E94E721C054DF4F2883C05CD040D9
:1027B000CF53DF4F3883C15CD040CE53DF4F4883C7
:1027C000C25CD040C053DF4F5883C05DD040CF5271
:1027D000DF4F6883C15DD040CE52DF4F7883C25D4A
:1027E000D040CD52DF4F8883C35DD040CC52DF4F05
:1027F0009883C45DD0403091D40E2091D30E932F96
:10280000990F990B492F592F692F792F892F0E94E2
:10281000E7210CE00E94162319012A013B014C011B
:102820003091D60E2091D50E932F990F990BC0544D
:10283000DF4FA880C05CD040CF53DF4FB880C15C71
:10284000D040CE53DF4FC880C25CD040C053DF4F72
:10285000D880C05DD040CF52DF4FE880C15DD0400E
:10286000CE52DF4FF880C25DD040CD52DF4F08819D
:10287000C35DD040CC52DF4F1881C45DD040492F9A
:10288000592F692F792F892F0E94E72108E00E9494
:102890002F2351016201730184010E944C2370585F
:1028A0008F4F9F4F2090D10E3090D20E5101C12CEE
:1028B000D12CE12CF12C00E010E00E94E72101E294
:1028C0000E942F23C553DF4F2883CB5CD040C453D5
:1028D000DF4F3883CC5CD040C353DF4F4883CD5C9F
:1028E000D040C253DF4F5883CE5CD040C153DF4F3E
:1028F0006883CF5CD040272E382E492EA0E0C12C13
:10290000D12C76010E945E2309F4C9C13091DC0EFE
:102910002091DB0E932F990F990BC054DF4FA880A5
:10292000C05CD040CF53DF4FB880C15CD040CE53A5
:10293000DF4FC880C25CD040C053DF4FD880C05D3D
:10294000D040CF52DF4FE880C15DD040CE52DF4F44
:10295000F880C25DD040CD52DF4F0881C35DD040CA
:10296000CC52DF4F1881C45DD040492F592F692FB9
:10297000792F892F0E94E721C054DF4F2883C05C44
:10298000D040CF53DF4F3883C15CD040CE53DF4FB0
:102990004883C25CD040552E3B014C013091DA0E89
:1029A0002091D90E932F990F990BCA55DF4FA8800C
:1029B000C65AD040C655DF4FB880CA5AD040C2551B
:1029C000DF4FC880CE5AD040CE54DF4FD880C25B94
:1029D000D040CA54DF4FE880C65BD040C654DF4FBA
:1029E000F880CA5BD040C254DF4F0881CE5BD04034
:1029F000C154DF4F1881CF5BD040492F592F692F29
:102A0000792F892F0E94E72101E10E941623C054EB
:102A1000DF4FA880C05CD040CF53DF4FB880C15C8F
:102A2000D040CE53DF4FC880C25CD040D52C73015C
:102A300084010E944C2359016A017B01582E192FF1
:102A4000CD53DF4F488159816A817B81C35CD0407F
:102A5000E4E07595679557954795EA95D1F780E03D
:102A600090E0A0E1B0E0841B950BA60BB70B3C01F6
:102A70004D01990C6608762C43019C01AD01662D31
:102A8000762D862D962D0FE10E94162339014A01DD
:102A9000B62FA72FF82FE92F3091D80E2091D70EFF
:102AA000932F990F990B492F592F692F792F892F20
:102AB00003E20E941623052D0E944C2359016A014E
:102AC0007B018C019301A4016B2F7A2F8F2F9E2FF6
:102AD0000E945523A5E3AA2EBCE0BB2EC12CD12C0D
:102AE000E12CF12C00E010E00E94E721C553DF4FFC
:102AF000A880CB5CD040C453DF4FB880CC5CD040C2
:102B0000C353DF4FC880CD5CD040C253DF4FD88065
:102B1000CE5CD040C153DF4FE880CF5CD040F22C78
:102B2000032D142D0E944122CA55DF4F2883C65A17
:102B3000D040C655DF4F3883CA5AD040C255DF4F08
:102B40004883CE5AD040CE54DF4F5883C25BD0402A
:102B5000CA54DF4F6883C65BD040C654DF4F7883CA
:102B6000CA5BD040C254DF4F8883CE5BD040C15493
:102B7000DF4F9883CF5BD0400DE00E942F23922E31
:102B8000832E742E652E562E472E382E292E3091E8
:102B9000E20E2091E10E932F990F990BA92CB82CDE
:102BA000C72CD62CE52CF42C032D122D492F592F90
:102BB000692F792F892F0E94E7210E94E72109E1DF
:102BC0000E942F23CA55DF4FA880C65AD040C65551
:102BD000DF4FB880CA5AD040C255DF4FC880CE5AA6
:102BE000D040CE54DF4FD880C25BD040CA54DF4FB4
:102BF000E880C65BD040C654DF4FF880CA5BD04047
:102C0000C254DF4F0881CE5BD040C154DF4F1881E2
:102C1000CF5BD0400E944C2319012A013B014C019B
:102C20003091E00E2091DF0E932F990F990B492FD1
:102C3000592F692F792F892F0E94E72103E10E94E4
:102C40002F2359016A017B018C019101A201B3017B
:102C5000C4010E944C2308E00E942F2359016A01FD
:102C60007B01E82F192F3091DE0E2091DD0E932F7E
:102C7000990F990B492F592F692F792F892F04E02C
:102C80000E9416230E2F0E944C230E940E2020E04B
:102C900030E040E85BE30E9419216B017C01C953DD
:102CA000DF4F88819981AA81BB81C75CD040C25720
:102CB000DF4F88839983AA83BB83CE58D04080EFAF
:102CC00092E0CE56DF4F99838883C259D04087E087
:102CD000FE01E357FF4FDE01AA57BF4F01900D924F
:102CE0008A95E1F7C757DF4F48815981C958D040CD
:102CF00060EF72E0C957DF4F88819981C758D04093
:102D00000E940D0E8C0120E030E048EC52E4C70137
:102D1000B6010E94661FAB01BC01C8010E94640796
:102D2000CE018E559F4F0E944307C357DF4F6883E4
:102D300079838A839B83CD58D040CE0183579F4FA0
:102D40000E94E8066B017C01CB56DF4FC882D98216
:102D5000EA82FB82C559D04087EE92E0C756DF4F2A
:102D600099838883C959D04087E0FE01EC56FF4F14
:102D7000DE01A357BF4F01900D928A95E1F7C0572E
:102D8000DF4F48815981C059D04067EE72E0C25789
:102D9000DF4F88819981CE58D0400E940D0E69E0A6
:102DA00073E00E9457070E94D6088DEF0E94B90772
:102DB000B0E0A0E0811520E89207A105B10509F473
:102DC00057C14090C30E5090C40E6090C50E7090D5
:102DD000C60E3CE2531A31E0630A71084C015D01F2
:102DE0003EE0880C991CAA1CBB1C3A95D1F7809137
:102DF000E70E9091E80E092E000CAA0BBB0B44E1E4
:102E0000880F991FAA1FBB1F4A95D1F7881A990AE4
:102E1000AA0ABB0AA091E90EB091EA0EA3019201A1
:102E20000E94DF21861A970AA80AB90A40E4940E84
:102E3000A11CB11C5FE0B594A794979487945A9510
:102E4000D1F7A091E60EB0E0A3010E94D421EBE0FF
:102E50009595879577956795EA95D1F79B01AC0194
:102E600030584F4F5F4FCA55DF4F288339834A830D
:102E70005B83C65AD040A091EB0E0A2E000CBB0B10
:102E8000A30192010E94DF21FAE09595879577953D
:102E90006795FA95D1F7CA55DF4F288139814A8164
:102EA0005B81C65AD0400E9486219B01AC01AAE0FA
:102EB0005595479537952795AA95D1F7405E5F4F71
:102EC000A091E40EB091E50E0E94DF21705E8F4F5D
:102ED0009F4FBEE09595879577956795BA95D1F701
:102EE000A50194010E9486214B015C011FE095958C
:102EF0008795779567951A95D1F79B01AC010E944C
:102F000086219B01AC0107E055954795379527959C
:102F10000A95D1F7A091E30EB0E00E94D42124E0FD
:102F200095958795779567952A95D1F7861A970A8B
:102F3000A80AB90AB7FE03C0812C912C5401C5011F
:102F4000B40161307105810539E1930724F060E037
:102F500070E080E099E12CE09595879577956795ED
:102F60002A95D1F70E94162020E030E040E85AE38D
:102F70000E9419214B015C01C456DF4FC882D982DF
:102F8000EA82FB82CC59D04080EF92E0C056DF4FFE
:102F900099838883C05AD04087E0FE01E556FF4FF1
:102FA000DE01AC56BF4F01900D928A95E1F7C956EC
:102FB000DF4F48815981C759D04060EF72E0CB564E
:102FC000DF4F88819981C559D0400E940D0EB5010F
:102FD000A4010E94640785E296E00E94F30D88E850
:102FE00095E00E94F30D8BEE94E00E94F30D8EE4C9
:102FF00094E00E94F30D6CEB72E085E296E00E9493
:10300000E30A6CEB72E088E895E00E94E30A6CEB5F
:1030100072E08BEE94E00E94E30A6CEB72E08EE4C7
:1030200094E00E94E30ACC52DF4F0FB6F894DEBF63
:103030000FBECDBFDF91CF911F910F91FF90EF9009
:10304000DF90CF90BF90AF909F908F907F906F90C8
:103050005F904F903F902F9008959A609483709561
:103060006095509541955F4F6F4F7F4F0C94AA0E1E
:10307000812C912C80ECA82E8FE7B82E7DCF1F924B
:103080000F920FB60F9211240BB60F922F933F930E
:103090004F935F936F937F938F939F93AF93BF9360
:1030A000EF93FF938EE494E00E949602FF91EF91DC
:1030B000BF91AF919F918F917F916F915F914F9150
:1030C0003F912F910F900BBE0F900FBE0F901F904E
:1030D00018951F920F920FB60F9211240BB60F92F4
:1030E0002F933F934F935F936F937F938F939F9310
:1030F000AF93BF93EF93FF938EE494E00E94180286
:10310000FF91EF91BF91AF919F918F917F916F91BF
:103110005F914F913F912F910F900BBE0F900FBE7B
:103120000F901F9018951F920F920FB60F921124B7
:103130000BB60F922F933F934F935F936F937F93B1
:103140008F939F93AF93BF93EF93FF938BEE94E096
:103150000E949602FF91EF91BF91AF919F918F9145
:103160007F916F915F914F913F912F910F900BBE87
:103170000F900FBE0F901F9018951F920F920FB6D1
:103180000F9211240BB60F922F933F934F935F939F
:103190006F937F938F939F93AF93BF93EF93FF931F
:1031A0008BEE94E00E941802FF91EF91BF91AF91D6
:1031B0009F918F917F916F915F914F913F912F914F
:1031C0000F900BBE0F900FBE0F901F9018951F927F
:1031D0000F920FB60F9211240BB60F922F933F93BD
:1031E0004F935F936F937F938F939F93AF93BF930F
:1031F000EF93FF9388E895E00E949602FF91EF918C
:10320000BF91AF919F918F917F916F915F914F91FE
:103210003F912F910F900BBE0F900FBE0F901F90FC
:1032200018951F920F920FB60F9211240BB60F92A2
:103230002F933F934F935F936F937F938F939F93BE
:10324000AF93BF93EF93FF9388E895E00E94180235
:10325000FF91EF91BF91AF919F918F917F916F916E
:103260005F914F913F912F910F900BBE0F900FBE2A
:103270000F901F9018951F920F920FB60F92112466
:103280000BB60F922F933F934F935F936F937F9360
:103290008F939F93AF93BF93EF93FF9385E296E055
:1032A0000E949602FF91EF91BF91AF919F918F91F4
:1032B0007F916F915F914F913F912F910F900BBE36
:1032C0000F900FBE0F901F9018951F920F920FB680
:1032D0000F9211240BB60F922F933F934F935F934E
:1032E0006F937F938F939F93AF93BF93EF93FF93CE
:1032F00085E296E00E941802FF91EF91BF91AF9195
:103300009F918F917F916F915F914F913F912F91FD
:103310000F900BBE0F900FBE0F901F9018951F922D
:103320000F920FB60F9211242F933F938F939F9379
:10333000AF93BF938091340490913504A0913604EB
:10334000B09137043091330423E0230F2D3758F523
:103350000196A11DB11D20933304809334049093F2
:103360003504A0933604B0933704809138049091CB
:103370003904A0913A04B0913B040196A11DB11DFE
:103380008093380490933904A0933A04B0933B049B
:10339000BF91AF919F918F913F912F910F900FBE51
:1033A0000F901F90189526E8230F0296A11DB11DBE
:1033B000D2CF1F920F920FB60F9211240BB60F921D
:1033C0002F933F934F935F936F937F938F939F932D
:1033D000AF93BF93EF93FF938091B900887F8036BE
:1033E00009F44DC008F040C0883209F4A9C028F59E
:1033F000803109F49DC0C8F4882309F4FBC08830EB
:1034000009F496C0FF91EF91BF91AF919F918F9179
:103410007F916F915F914F913F912F910F900BBED4
:103420000F900FBE0F901F901895883109F488C037
:10343000803241F780930F0414C0803409F49DC09A
:1034400040F48033B9F38833E9F680930F0485ECB8
:10345000B0C0803509F485C0883509F496C0883439
:1034600089F60E94DE04CECF883909F48CC038F585
:10347000883729F050F4883611F0803719F683E048
:103480008093430410920E0457C0883809F47BC01F
:10349000803919F0803809F0B5CF80910E04803260
:1034A00008F071C0E0910E0481E08E0F80930E044D
:1034B0008091BB00F0E0E251FC4F80833DC0803B37
:1034C00039F0E0F4803A09F479C0883A09F09ACFEB
:1034D00084E0809343041092ED031092EC03E0919A
:1034E0003F04F091400419958091EC0381110FC0C5
:1034F00081E08093EC031092CC0309C0803C09F476
:10350000A6CF883C09F4A3CF883B09F07BCFE0919C
:10351000ED0381E08E0F8093ED03F0E0E453FC4F68
:1035200080818093BB009091ED038091EC0329C0D2
:10353000809132048093BB0085EC8093BC0062CF05
:103540009091310480913004981758F5E09131043E
:1035500081E08E0F80933104F0E0E05FFB4F8081CB
:10356000E9CFE091310481E08E0F809331048091A6
:10357000BB00F0E0E05FFB4F8083909131048091CD
:1035800030049817C8F285E8D8CFE091310481E083
:103590008E0F809331048091BB00F0E0E05FFB4F21
:1035A00080838091420481115CCF81E0809341044B
:1035B00084EA8093BC001092430424CF85EC80936E
:1035C000BC001092430480910E04803230F4E091EC
:1035D0000E04F0E0E251FC4F108260910E0470E0A6
:1035E000E0913D04F0913E048EEE93E01995109227
:1035F0000E0408CF10920F0434CFEEE4F4E01382EF
:10360000128288EE93E0A0E0B0E084839583A683E5
:10361000B7832BE832E03183208345E351E05587BF
:10362000448744E351E05787468740E351E0518B9C
:10363000408B41E351E0538B428B42E351E0558B89
:10364000448B46E351E0578B468B118E128E138EBE
:10365000148EEBEEF4E01382128284839583A683AA
:10366000B7833183208345ED50E05587448744ED8F
:1036700050E05787468740ED50E0518B408B41ED3D
:1036800050E0538B428B42ED50E0558B448B46ED1E
:1036900050E0578B468B118E128E138E148EE8E8F5
:1036A000F5E01382128284839583A683B7833183E6
:1036B00020834DEC50E0558744874CEC50E0578711
:1036C000468748EC50E0518B408B49EC50E0538BDF
:1036D000428B4AEC50E0558B448B4EEC50E0578BBC
:1036E000468B118E128E138E148EE5E2F6E0138255
:1036F000128284839583A683B7833183208325EC4C
:1037000030E03587248724EC30E03787268720ECAB
:1037100030E0318B208B21EC30E0338B228B22EC9C
:1037200030E0358B248B26EC30E0378B268B118EE6
:10373000128E138E148E1092C80620E22093C706B4
:1037400020E42093C60620E62093C5061092C40606
:103750002CE02093C3061092C206E9ECF6E0138237
:10376000128284839583A683B7838DE992E0918347
:103770008083E4EBFEE015821482178216821186A4
:1037800010868FEF838B848B858B868BE7EDF6E03D
:1037900084EE96E0918380839383828384EB9EE022
:1037A000958384839783868384858078848788E65D
:1037B0008093D6061092D5060895CF93DF93CDB7A8
:1037C000DEB7A1970FB6F894DEBF0FBECDBF7894D9
:1037D00084B5826084BD84B5816084BD85B5826016
:1037E00085BD85B5816085BD80916E0081608093C7
:1037F0006E00109281008091810082608093810030
:10380000809181008160809381008091800081603F
:10381000809380008091B10084608093B10080919A
:10382000B00081608093B0008091910082608093AD
:10383000910080919100816080939100809190002F
:103840008160809390008091A10082608093A100AC
:103850008091A10081608093A1008091A00081608F
:103860008093A0008091210182608093210180914A
:1038700021018160809321018091200181608093EA
:10388000200180917A00846080937A0080917A0090
:10389000826080937A0080917A00816080937A00C0
:1038A00080917A00806880937A001092C10080E84D
:1038B0008093610080E00E946D0481E090E00E94AE
:1038C000DE1E482F50E070E060E04F5F5F4F6F4FAB
:1038D0007F4F409344045093450460934604709393
:1038E000470461E0680F81E090E00E94E61E80914D
:1038F000440490914504A0914604B09147048B3F45
:103900009105A105B1056CF0109244041092450494
:10391000109246041092470460E081E090E00E941B
:10392000E61E40E251EA67E070E085E296E00E9420
:103930007F0140E251EA67E070E088E895E00E948C
:103940007F0140E251EA67E070E08BEE94E00E9474
:103950007F0140E251EA67E070E08EE494E00E946B
:103960007F0161E08AE00E943C0461E086E10E9400
:103970003C0461E087E10E943C0461E088E10E9430
:103980003C0461E089E10E943C0461E08AE10E941C
:103990003C0461E08BE10E943C0461E08CE10E9408
:1039A0003C0461E08DE10E943C0486E78093BE0EFA
:1039B00089EC96E09093B50E8093B40E8091C70E7B
:1039C0008F3F09F04EC010924804109249041092A3
:1039D0004B0410924A041092430481E08093420405
:1039E0001092410461E084E10E94B10361E085E14D
:1039F0000E94B1038091B9008E7F8093B9008091BD
:103A0000B9008D7F8093B90088E48093B80085E485
:103A10008093BC0089EE91E09093400480933F0432
:103A20008AEE91E090933E0480933D0480ED0E94E5
:103A3000840A90E0B0E0A0E08093BF0E9093C00EA7
:103A4000A093C10EB093C20E80369105A105B105B9
:103A500009F456C06CE073E085E296E00E94E30A48
:103A6000FFCF61E00E94B10361E08091C70E0E9428
:103A70003C048091CA0E8F3F09F034C01FB7F89400
:103A800080913C04811127C0E7EFF1E08491EDE3E0
:103A9000F2E09491E82FF0E0EE0FFF1FE257FE4FA7
:103AA000A591B491EC91E92321F461E085E30E94B2
:103AB000B10361E085E30E943C048CB580618CBD5C
:103AC0008CB580648CBD61E084E30E943C0461E0BD
:103AD00083E30E943C0480913C048F5F80933C040C
:103AE0001FBFA4CF61E00E943C0461E08091C80E3A
:103AF0000E943C0460E08091C90E0E943C0496CF75
:103B000066EB80EE0E94EF056AE070E080E090E0F6
:103B10000E94AC0483EF0E94840A80FDF5CF88E800
:103B20000E9426089093CC0E8093CB0E8AE80E94C8
:103B300026089093CE0E8093CD0E8CE80E94260826
:103B40009093D00E8093CF0E8EE80E94260890931B
:103B5000D20E8093D10E80E90E9426089093D40E55
:103B60008093D30E82E90E9426089093D60E80930C
:103B7000D50E84E90E9426089093D80E8093D70E24
:103B800086E90E9426089093DA0E8093D90E88E980
:103B90000E9426089093DC0E8093DB0E8AE90E9437
:103BA00026089093DE0E8093DD0E8CE90E94260895
:103BB0009093E00E8093DF0E8EE90E94260890938A
:103BC000E20E8093E10E81EA0E94840A8093E30E64
:103BD00081EE0E9426089093E50E8093E40E83EE1A
:103BE0000E94840A8093E60E84EE0E94840A182FB5
:103BF00085EE0E94840A90E11902900111248F70D1
:103C0000282B3093E80E2093E70E86EE0E94840A5C
:103C1000182F85EE0E94840A90E119029001112468
:103C200090E044E0959587954A95E1F7822B932B98
:103C30009093EA0E8093E90E87EE0E94840A8093A7
:103C4000EB0E8DEE8093ED0E8091EE0E8F71806AFB
:103C50008093EE0E8091EC0E807C8093EC0E60E001
:103C600084EF0E94EF056091EE0E62956695677095
:103C700082EF0E94EF058091EC0E682F677090E252
:103C8000699FB0011124282F269526952695277027
:103C900094E0299F90011124622B87FB882780F9EB
:103CA000682B85EF0E94EF058091ED0E682F6770FD
:103CB00090E2699FB0011124282F2695269526951C
:103CC000277094E0299F90011124622B829586959C
:103CD00086958370682B84EF0E94EF0564E670E0A0
:103CE00080E090E00E94AC0481E080934D0410924B
:103CF0004C0410924B0410924A0466E089EC96E062
:103D00000E945F0589EC96E00E948E0561E070E0FC
:103D100080E090E00E94AC0441E068E689EC96E027
:103D20000E9473079091490480914804981319C028
:103D300060E473E085E296E00E94D90A19A288E364
:103D400088A386E38F8FBE01615E7F4F85E296E098
:103D50000E94D90A6BEA72E085E296E00E94D90AD5
:103D6000FFCF0E94530E0E942503FBCF8091B80E17
:103D70009091B90E009739F0DC01ED91FC91028031
:103D8000F381E02D19958091BA0E9091BB0E0097AA
:103D900039F0DC01ED91FC910280F381E02D199561
:103DA0008091BC0E9091BD0E009739F0DC01ED9131
:103DB000FC910280F381E02D19940895F999FECFCA
:103DC00092BD81BDF89A992780B50895262FF9995B
:103DD000FECF1FBA92BD81BD20BD0FB6F894FA9AEE
:103DE000F99A0FBE019608955058BB27AA270E9442
:103DF0000C1F0C94DA200E94CC2038F00E94D320B3
:103E000020F039F49F3F19F426F40C94B9200EF4F5
:103E1000E095E7FB0C94B320E92F0E94EB2058F3C8
:103E2000BA17620773078407950720F079F4A6F59F
:103E30000C940D210EF4E0950B2EBA2FA02D0B0142
:103E4000B90190010C01CA01A0011124FF27591BDF
:103E500099F0593F50F4503E68F11A16F040A22FE5
:103E6000232F342F4427585FF3CF46953795279556
:103E7000A795F0405395C9F77EF41F16BA0B620B55
:103E8000730B840BBAF09150A1F0FF0FBB1F661F9C
:103E9000771F881FC2F70EC0BA0F621F731F841FDF
:103EA00048F4879577956795B795F7959E3F08F005
:103EB000B0CF9395880F08F09927EE0F97958795C7
:103EC00008950E948F2008F481E008950E947A1FCF
:103ED0000C94DA200E94D32058F00E94CC2040F0AD
:103EE00029F45F3F29F00C94B32051110C940E215A
:103EF0000C94B9200E94EB2068F39923B1F3552369
:103F000091F3951B550BBB27AA27621773078407EC
:103F100038F09F5F5F4F220F331F441FAA1FA9F382
:103F200035D00E2E3AF0E0E832D091505040E69570
:103F3000001CCAF72BD0FE2F29D0660F771F881FD1
:103F4000BB1F261737074807AB07B0E809F0BB0BC4
:103F5000802DBF01FF2793585F4F3AF09E3F5105D8
:103F600078F00C94B3200C940E215F3FE4F3983E5C
:103F7000D4F3869577956795B795F7959F5FC9F7C1
:103F8000880F911D9695879597F90895E1E0660F42
:103F9000771F881FBB1F621773078407BA0720F0BB
:103FA000621B730B840BBA0BEE1F88F7E095089524
:103FB0000E94DF1F6894B1110C940E2108950E9495
:103FC000F32088F09F5798F0B92F9927B751B0F098
:103FD000E1F0660F771F881F991F1AF0BA95C9F78D
:103FE00014C0B13091F00E940D21B1E008950C94FD
:103FF0000D21672F782F8827B85F39F0B93FCCF3B0
:10400000869577956795B395D9F73EF49095809509
:10401000709561957F4F8F4F9F4F089597FB16F4D2
:104020000E94BC200C945220E89409C097FB3EF4F7
:1040300090958095709561957F4F8F4F9F4F9923F5
:10404000A9F0F92F96E9BB279395F6958795779573
:104050006795B795F111F8CFFAF4BB0F11F460FF33
:104060001BC06F5F7F4F8F4F9F4F16C0882311F08B
:1040700096E911C0772321F09EE8872F762F05C09F
:10408000662371F096E8862F70E060E02AF09A953A
:10409000660F771F881FDAF7880F9695879597F92F
:1040A0000895E894F92F96EBFF2381F0121613067A
:1040B0001406440B9395F6958795779567955795D4
:1040C0004040FF23B9F71BC099270895882351F476
:1040D0009850D2F7872B762F652F542F432F322FEE
:1040E00020E0B1F3121613061406440B88233AF0AD
:1040F0009A95440F551F661F771F881FCAF75523CF
:104100004AF4440F551F11F460FF04C06F5F7F4FE6
:104110008F4F9F4F880F9695879597F90895990F20
:104120000008550FAA0BE0E8FEEF16161706E80781
:10413000F907C0F012161306E407F50798F0621BA2
:10414000730B840B950B39F40A2661F0232B242B77
:10415000252B21F408950A2609F4A140A6958FEF96
:10416000811D811D089597F99F6780E870E060E0E8
:1041700008959FEF80EC08959095809570956095D7
:1041800050954095309521953F4F4F4F5F4F6F4F62
:104190007F4F8F4F9F4F089500240A9416161706DD
:1041A00018060906089500240A9412161306140628
:1041B00005060895092E0394000C11F4882352F08B
:1041C000BB0F40F4BF2B11F460FF04C06F5F7F4F43
:1041D0008F4F9F4F089557FD9058440F551F59F02A
:1041E0005F3F71F04795880F97FB991F61F09F3FE4
:1041F00079F087950895121613061406551FF2CF0D
:104200004695F1DF08C0161617061806991FF1CF5C
:1042100086957105610508940895E894BB27662783
:104220007727CB0197F908950E948F2008F48FEF2C
:1042300008950E942C210C94DA200E94CC2038F0A2
:104240000E94D32020F0952311F00C94B3200C94FD
:10425000B92011240C940E210E94EB2070F3959F3D
:10426000C1F3950F50E0551F629FF001729FBB276D
:10427000F00DB11D639FAA27F00DB11DAA1F649F09
:104280006627B00DA11D661F829F2227B00DA11DBC
:10429000621F739FB00DA11D621F839FA00D611D42
:1042A000221F749F3327A00D611D231F849F600D63
:1042B000211D822F762F6A2F11249F5750409AF08C
:1042C000F1F088234AF0EE0FFF1FBB1F661F771F18
:1042D000881F91505040A9F79E3F510580F00C94E3
:1042E000B3200C940E215F3FE4F3983ED4F38695FF
:1042F00077956795B795F795E7959F5FC1F7FE2B83
:10430000880F911D9695879597F90895DB018F93F6
:104310009F930E94D421BF91AF91A29F800D911DC8
:10432000A39F900DB29F900D1124089597FB072E27
:1043300016F4009407D077FD09D00E946A2307FC89
:1043400005D03EF4909581959F4F089570956195A5
:104350007F4F0895A1E21A2EAA1BBB1BFD010DC0C1
:10436000AA1FBB1FEE1FFF1FA217B307E407F50725
:1043700020F0A21BB30BE40BF50B661F771F881F01
:10438000991F1A9469F760957095809590959B0197
:10439000AC01BD01CF010895EE0FFF1F881F8BBF39
:1043A0000790F691E02D19940E947E23A59F900D11
:1043B000B49F900DA49F800D911D11240895B7FF07
:1043C0000C94D4210E94D421821B930B0895DF9377
:1043D000CF931F930F939A9DF02D219FF00D8B9DEE
:1043E000F00D8A9DE02DF10D039FF00D029FE00D71
:1043F000F11D4E9DE00DF11D5E9DF00D4F9DF00DE8
:104400007F936F93BF92AF925F934F93D5010E94BA
:104410007E238B01AC01D7010E947E23EB01E80FC4
:10442000F91FD6010E9436222F913F91D6010E949A
:104430007E23C60FD71FE81FF91FAF91BF910E94BF
:1044400036222F913F910E947E23C60FD71FE81F6F
:10445000F91FD6010E947E23E60FF71F9801BE01C7
:10446000CF010F911F91CF91DF9108950E947E237C
:10447000460F571FC81FD91F08F431960895689436
:1044800001C0E894F92FF12B12F00C947322A0E0F4
:10449000B0E0EDE4F2E20C94E522092E059422F45A
:1044A0000E94CF22112392F4F0E80F26FFEFE09450
:1044B000F09400951095B094C094D094A194BF0A44
:1044C000CF0ADF0AEF0AFF0A0F0B1F0B0E947E22A2
:1044D00007FC0E94CF22CDB7DEB7ECE00C9401239D
:1044E000689401C0E8948F929F92CF93DF930E94CB
:1044F0007E22DF91CF919F908F90089588249924F8
:10450000F401E401B0E49F93AA279A158B049C045C
:10451000ED05FE05CF05D007A10798F4AD2FDC2FE0
:10452000CF2FFE2FE92D982C892E982F872F762FAD
:10453000652F542F432F322F2227B85031F7BF91C8
:1045400027C01B2EBF91BB27220F331F441F551FAF
:10455000661F771F881F991F881C991CEE1FFF1F5D
:10456000CC1FDD1FAA1FBB1F8A149B04EC05FD0591
:10457000CE05DF05A007B10748F08A189B08EC09B3
:10458000FD09CE09DF09A00BB10B21601A94E1F6F9
:104590002EF49401AF01BE01CD01000C0895609589
:1045A00070958095909530954095509521953F4F09
:1045B0004F4F5F4F6F4F7F4F8F4F9F4F08952F92F9
:1045C0003F924F925F926F927F928F929F92AF92A3
:1045D000BF92CF92DF92EF92FF920F931F93CF93F0
:1045E000DF93CDB7DEB7CA1BDB0B0FB6F894DEBF87
:1045F0000FBECDBF19942A88398848885F846E849D
:104600007D848C849B84AA84B984C884DF80EE80F6
:10461000FD800C811B81AA81B981CE0FD11D0FB6FF
:10462000F894DEBF0FBECDBFED010895002E083017
:1046300090F0982F872F762F652F542F432F322FEE
:1046400022270850F4CF220F331F441F551F661F27
:10465000771F881F991F0A95B2F7002D089597FDBF
:104660001094002E083098F00850232F342F452F37
:10467000562F672F782F892F912DF4CF159497956A
:1046800087957795679557954795379527950A9517
:10469000AAF71124002D08952A0D3B1D4C1D5D1D08
:1046A0006E1D7F1D801F911F08952A193B094C091B
:1046B0005D096E097F09800B910B08950024A7FD09
:1046C00000942A17300540055005600570058005E7
:1046D00090050895AA1BBB1B51E107C0AA1FBB1F71
:1046E000A617B70710F0A61BB70B881F991F5A957E
:1046F000A9F780959095BC01CD010895A29FB001C6
:10470000B39FC001A39F700D811D1124911DB29F05
:10471000700D811D1124911D0895FB01DC018D9107
:10472000019080190110D9F3990B089511E0CBE4A1
:10473000D1E000E006C0802FFE010E94CC2121962E
:10474000011DCC34D10780E00807A9F7F894FFCF0A
:104750000000803FCDCCCC3D6F12833A95BFD6335D
:104760007D1D9026B3CE010CCDCCCC3D0AD7233C89
:1047700017B7D13877CC2B329595E6241FB14F0A65
:10478000000020410000C84200401C4620BCBE4C36
:10479000CA1B0E5AAEC59D7400F0FF00000000C099
:1047A000FF0000000000FF0000000000FC00080007
:1047B0000000000020000000000080000000000059
:1047C00000024710000000001B41000000006B04C5
:1047D00001000000AB110400000000B802EB013141
:1047E000020503620240025402000000005F05322D
:1047F00005EB050F05E2011F0510050D0A00222239
:104800005C5C6208660C6E0A720D7409006E756C51
:104810006C00652D00747275650066616C736500CF
:1048200053657373696F6E4964004D65617375728A
:10483000656D656E74730053656E736F72496400C5
:1048400056616C7565003200330034003500360067
:10485000370038003900313000313100436F756C5A
:1048600064206E6F742066696E6420612076616CCE
:10487000696420424D453238302073656E736F7223
:104880002C20636865636B20776972696E6721000D
:104890004E6F2064657669636520666F756E64206F
:0C48A00061742061646472657373200011
:00000001FF
